:100000000C942A170C9454170C9454170C945417EE
:100010000C9454170C9454170C9454170C945417B4
:100020000C9454170C9454170C9454170C945417A4
:100030000C9454170C948C690C9454170C9454170A
:100040000C9454170C9466A30C942D590C945417CB
:100050000C94693D0C9454170C9454170C94541739
:100060000C9454170C9454170C9454170C94541764
:100070000C9454170C9454170C9454170C94541754
:100080000C9454170C9454170C945417372C3C2C84
:10009000412C4B2C792C552C5D2C652C6F2C9658B3
:1000A000EC58BC58B658D158D558E0589E68A1684D
:1000B00094689868B868A568A968AF68B368E5945B
:1000C000EE94F89401950A95259532953B951395F4
:1000D0001C954E414E494E495459494E46CDCCCCC3
:1000E0003D0AD7233C17B7D13877CC2B329595E60C
:1000F000241FB14F0A000020410000C84200401CEC
:100100004620BCBE4CCA1B0E5AAEC59D74434F4D13
:100110004D554E49434154494F4E00445259525552
:100120004E004552524F525300494E464F004543F0
:10013000484F0020746F6F206C6F6E672065787475
:10014000727573696F6E2070726576656E74656422
:100150000A0020636F6C6420657874727573696F30
:100160006E2070726576656E7465640A00536C6506
:1001700065702E2E2E00526573756D696E67207046
:1001800072696E74005A3642532072656164792E2A
:1001900000436C69636B20746F20726573756D65C5
:1001A0002E2E2E004E6F206D6F76652E00456E64EC
:1001B0002066696C65206C6973740A004265676922
:1001C0006E2066696C65206C6973740A004D31326B
:1001D00035005344207072696E74696E67206279CD
:1001E000746520004E6F74205344207072696E74E1
:1001F000696E670A0046696C652064656C657465A4
:10020000643A0044656C6574696F6E206661696C60
:1002100065642C2046696C653A20006F70656E201D
:100220006661696C65642C2046696C653A200050F3
:1002300072696E742074696D653A200000011716AA
:100240001815FF14131812FF1110180DFFFFFF01EE
:100250001CFFFFFF1B1A18FFFF011800FF190F0EEC
:1002600018FFFFFFFFFFFF50726F746563746564D2
:100270002050696E0A006D0046696C616D656E7490
:1002800020757365643A200053746174733A2000DA
:100290002C204C6F6E67657374206A6F623A200081
:1002A000546F74616C2074696D653A2000537461F9
:1002B00074733A20002C204661696C65643A200012
:1002C0002C2046696E69736865643A200050726933
:1002D0006E74733A200053746174733A200045259C
:1002E00069202573002E01290122011B010D016FD8
:1002F00066660044454255473A004B494C4C4544DC
:100300002E20006F6B0048656174696E6720646F12
:100310006E652E0020573A0045256920257300425E
:10032000656420646F6E652E0020573A0042656454
:100330002048656174696E672E005A364253204F1B
:1003400066662E00454D455247454E43595F504124
:100350005253455200434153455F4C494748545F0F
:100360004252494748544E45535300544F47474C17
:10037000455F4C494748545300534F4654574152E8
:10038000455F504F574552004255494C445F5045D8
:100390005243454E54004C4556454C494E475F44E8
:1003A000415441005A5F50524F4245004155544F0D
:1003B0004C4556454C005052494E545F4A4F4200FE
:1003C00050524F4752455353004155544F52455098
:1003D0004F52545F54454D5000564F4C554D455467
:1003E00052494300454550524F4D005345524941F3
:1003F0004C5F584F4E5F584F4646004649524D5746
:100400004152455F4E414D453A4D61726C696E20D7
:1004100042617365206F6E204D61726C696E312E82
:10042000312E3820284769746875622920534F554A
:100430005243455F434F44455F55524C3A6874748C
:1004400070733A2F2F6769746875622E636F6D2F12
:100450007A6F6E657374617233642050524F544FDB
:10046000434F4C5F56455253494F4E3A312E302040
:100470004D414348494E455F545950453A5A3642DA
:10048000532045585452554445525F434F554E549E
:100490003A3120555549443A3030303030303130DF
:1004A0002D303830382D303030332D303030302D45
:1004B00032303138303131303030310A002F2F2096
:1004C0000066696C616D656E743A20007A5F6D69D3
:1004D0006E3A2000795F6D696E3A2000785F6D6931
:1004E0006E3A20005265706F7274696E6720656E97
:1004F0006473746F70207374617475730A004D3186
:10050000343520533C696E6465783E206F757420E5
:100510006F662072616E67652028302D31290A00D0
:1005200053657474696E672054726176656C2041FE
:100530006363656C65726174696F6E3A2000536520
:100540007474696E672052657472616374204163CC
:1005500063656C65726174696F6E3A2000536574EF
:1005600074696E67205072696E7420416363656CB4
:1005700065726174696F6E3A200053657474696EB8
:1005800067205072696E7420616E642054726176C7
:10059000656C20416363656C65726174696F6E3A66
:1005A0002000205A00205900580020204D61783A40
:1005B0002000205A00205900580020204D696E3A32
:1005C00020004F6E20004F666600536F66742065F2
:1005D0006E6473746F70733A200023646566696E8D
:1005E00065202044454641554C545F4B6420002310
:1005F000646566696E65202044454641554C545FEC
:100600004B69200023646566696E65202044454679
:1006100041554C545F4B7020005049442041757443
:100620006F74756E652066696E69736865642120F4
:1006300050757420746865206C617374204B702C45
:10064000204B6920616E64204B6420636F6E73746D
:10065000616E74732066726F6D2062656C6F7720B7
:10066000696E746F20436F6E666967757261746935
:100670006F6E2E680A00504944204175746F74757E
:100680006E65206661696C6564212074696D656FB3
:1006900075740A00544845524D414C2052554E4104
:1006A00057415900546865726D616C2052756E61D6
:1006B0007761790048656174696E67206661696C6D
:1006C00065640048656174696E67206661696C6580
:1006D0006400504944204175746F74756E652066DE
:1006E00061696C6564212054656D70657261747513
:1006F000726520746F6F20686967680A00204B6418
:100700003A2000204B693A2000204B703A20000A22
:1007100020436C617373696320504944200A0020B0
:1007200054753A2000204B753A2000206D61783ACC
:100730002000206D696E3A200020643A200020627B
:100740006961733A20004E6F2063617365206C69A4
:100750006768740A0041637469766520457874722D
:10076000756465723A2000556E6B6E6F776E20630C
:100770006F6D6D616E643A202200256973002569F2
:100780006D20256973002569682025696D2025691C
:100790007300256964202569682025696D20256915
:1007A00073002569792025696420256968202569F9
:1007B0006D20256973004C696E65204E756D62650C
:1007C00072206973206E6F74204C617374204C69C1
:1007D0006E65204E756D6265722B312C204C6173F5
:1007E00074204C696E653A20004B494C4C45442EB0
:1007F000200053544F505045442E20005072696ED3
:100800007465722073746F70706564206475652000
:10081000746F206572726F72732E2046697820742F
:100820006865206572726F7220616E6420757365F1
:10083000204D39393920746F207265737461727478
:100840002E202854656D706572617475726520691B
:10085000732072657365742E20536574206974204B
:1008600061667465722072657374617274696E6713
:10087000290A004E6F20436865636B73756D20779E
:10088000697468206C696E65206E756D6265722C86
:10089000204C617374204C696E653A200063686572
:1008A000636B73756D206D69736D617463682C2063
:1008B0004C617374204C696E653A20004D313130C3
:1008C000004D3331005344207265616420657272BB
:1008D0006F720A00446F6E65207072696E74696E83
:1008E000672066696C650A00205A3A0020593A0070
:1008F00020436F756E7420583A0020453A00205A04
:100900003A0020593A00583A003A004361703A00E0
:1009100020643A0020693A0020703A006C63642039
:10092000636F6E74726173742076616C75653A20C2
:100930000043290A0061626C656420286D696E209D
:1009400074656D702000436F6C64206578747275F7
:10095000646573206172652000507265686561741A
:1009600020504C4120426564005072656865617496
:1009700020504C4120456E6400507265686561747A
:1009800020504C4100507265706172650050726574
:10099000686561742041425320426564005072656D
:1009A000686561742041425320456E640050726551
:1009B00068656174204142530050726570617265D0
:1009C000004261636B004E65787420636F726E65E0
:1009D00072005072656865617420504C4100436F2D
:1009E0006F6C646F776E005072656865617420414A
:1009F0004253004368616E67652066696C616D658E
:100A00006E740044697361626C6520737465707004
:100A1000657273004D3834004C6576656C20636FE9
:100A2000726E65727300486F6D65205A00473238E8
:100A3000205A00486F6D6520590047323820590010
:100A4000486F6D6520580047323820580041757452
:100A50006F20686F6D6500473238004D6F766520F6
:100A600061786973004D61696E004D6F766520583D
:100A7000004D6F76652059004D6F7665205A004510
:100A800078747275646572004D6F766520302E3112
:100A90006D6D004D6F766520316D6D004D6F766523
:100AA0002031306D6D004D6F76652061786973007F
:100AB0004578747275646572004D6F7665205A00D2
:100AC0004D6F76652059004D6F76652058004D3684
:100AD00030300043617463682066696C616D656ED7
:100AE000742072756E206F7574210A004B494C4C4E
:100AF00045442E20004B494C4C206361757365645E
:100B000020627920746F6F206D75636820696E6153
:100B100063746976652074696D65202D2063757234
:100B200072656E7420636F6D6D616E643A2000466D
:100B3000696C616D656E7420696E73657274210AEB
:100B40000043617463682066696C616D656E742032
:100B500072756E206F7574210A00506C6561736543
:100B6000207265736574005052494E5445522048B6
:100B7000414C544544005072696E7465722068613E
:100B80006C7465642E206B696C6C28292063616C21
:100B90006C6564210A00656E7175657565696E67BF
:100BA0002022000000B8C10000000000000000008A
:100BB000004842000048420000004000000000578A
:100BC00061726E696E673A20486F6D696E67204288
:100BD000756D702044697669736F72203C20310A0C
:100BE000000202040000A0400000A04000000040FD
:100BF000000037430000164300001643FFFFFF4D7F
:100C000036303020486F74656E6420746F6F2063D7
:100C10006F6C6420746F206368616E67652066691D
:100C20006C616D656E740A00486F6D6520257325D3
:100C30007325732066697273740020666972737419
:100C40000A005A0059005800486F6D65200053444F
:100C50002063617264206F6B0A006F70656E526F63
:100C60006F74206661696C65640A00766F6C756DDF
:100C7000652E696E6974206661696C65640A00534B
:100C80004420696E6974206661696C0A006175743C
:100C90006F25692E67004D3234004D3233202573A5
:100CA0000057726974696E6720746F2066696C659D
:100CB0003A20006F70656E206661696C65642C2057
:100CC00046696C653A20006F70656E206661696CDC
:100CD00065642C2046696C653A200046696C652085
:100CE00073656C65637465640A002053697A653ABC
:100CF000200046696C65206F70656E65643A20005F
:100D00006F70656E206661696C65642C2046696C45
:100D1000653A20002066696C653A2000646F696E50
:100D200067006672657368004E6F772000454E4419
:100D300020535542524F5554494E450A00222070C7
:100D40006F73002220706172656E743A22005355F1
:100D500042524F5554494E452043414C4C207461FA
:100D6000726765743A22004B494C4C45442E200072
:100D7000747279696E6720746F2063616C6C207384
:100D800075622D67636F64652066696C6573207793
:100D900069746820746F6F206D616E79206C657660
:100DA000656C732E204D4158206C6576656C20690A
:100DB000733A004572726F723A00FFE0FFD1AFFFE5
:100DC00032FFD0FFFEFFE0FFD1AEFFD0FFFEFFE01D
:100DD000FFD11002FFFEFFD0FFE0FFC1FFD1AED573
:100DE00080A83FD300408D142002A1C8DA12818070
:100DF000D9F1DB402EA4A6AFFFD0FFFE7C3C3E5EC7
:100E00002B3D3F2F5B5D3B2C2A225C004572726FAD
:100E1000722077726974696E6720746F204545503F
:100E2000524F4D210A0000002100240027002A0013
:100E300000002200250028002B00000020002300D5
:100E40002600290002020202020202020404040433
:100E50000404040403030303030303030101010166
:100E60000101010101020408102040800102040870
:100E70001020408001020408102040808040201093
:100E80000804020100000001020000000000000050
:100E9000040307060000000000000000000000003E
:100EA000000000004B494C4C45442E2000202D20D2
:100EB000496E76616C6964206578747275646572D8
:100EC000206E756D62657220210A0000000000002E
:100ED0000000000000000000000000000000000012
:100EE0000000000000000000000000000000000002
:100EF00000000000000000000000000000000000F2
:100F0000000000000000000000000007FF01FE07D5
:100F10000183FE0FF8FFF807007FC007FF83FF0F74
:100F20008187FE1FF8FFF80F80FFE007FFC7038FE0
:100F3000818FFC3FF0FFF81FC0E0E00003C6018F87
:100F4000C18C00380007001FC0C060000786018CFC
:100F5000C18C00300007003DE0C060000F06018C2E
:100F6000E18C003800070038E0E0E0001E06018C4C
:100F7000618FFE3FF0070038E0FFC0003C06018CA7
:100F8000618FFE1FF807003060FF80007806018C3B
:100F9000318FFC0FFC07007270FC0000F006018C22
:100FA000318E00001C07006230CE0001E006018C8B
:100FB000398C00000C07006730C70003C006018CA5
:100FC000198C00000C07006730C380078007038C72
:100FD000198E00001C0700CF98C1C007FFC7FF8C07
:100FE0000F8FFF1FFC0700CF98C0F003FFC3FF0C5B
:100FF0000F87FF3FF80700DFD8C07001FFC1FE0C6C
:101000000701FE3FF00700000000000000000000A4
:1010100000000000000000000000000000000000D0
:1010200000000000000000000000000000000000C0
:1010300000000000000000000000000000000000B0
:1010400000000000000000000000002020506C6143
:101050006E6E657242756666657242797465733A42
:1010600020002046726565204D656D6F72793A20CB
:1010700000436F6D70696C65643A204F6374203172
:101080003520323031390A00207C20417574686F78
:10109000723A202848616C6C79405A4F4E4553543F
:1010A0004152290A00323031392D31302D31300092
:1010B000204C61737420557064617465643A20003B
:1010C00042617365206F6E204D61726C696E312EC6
:1010D000312E380A004D61726C696E0020536F66C4
:1010E00074776172652052657365740A00205761D8
:1010F000746368646F672052657365740A002042E8
:10110000726F776E206F75742052657365740A0074
:101110002045787465726E616C2052657365740A3F
:1011200000506F77657255700A0073746172740AAB
:10113000006572726F722077726974696E672074CD
:101140006F2066696C650A00456E6473746F707316
:1011500020256320256320256320256300205A3A3B
:101160000020593A0020583A00656E6473746F701D
:1011700073206869743A2000446F6E65207361764D
:10118000696E672066696C652E0A004D323900244D
:10119000F4D43050C38E20C2A24017828B7011123B
:1011A0007A910D816CD90AA861E108C75866076178
:1011B0005143061E4B5D05C145A7041A41110409A0
:1011C0003D9803713931034036DB0265339102D417
:1011D000305402802E1D02632CEE01752AC501B029
:1011E00028A001102781018F2564012B244B01E0E9
:1011F000223401AC211F018D200D01801FFC0084D1
:101200001EED00971DDF00B81CD200E61BC60020B3
:101210001BBC00641AB200B219A8000A19A0006A27
:10122000189900D117910040178B00B51684003132
:10123000167E00B31579003A157300C7146F005875
:10124000146A00EE1366008813630025135E00C75E
:10125000125B006C12570015125400C1115100703E
:10126000114F0021114B00D61049008D1047004648
:1012700010440002104200C00F4000800F3E0042A8
:101280000F3C00060F3B00CB0E3800930E37005C7E
:101290000E3500270E3400F30D3200C10D310090E1
:1012A0000D3000600D2E00320D2D00050D2C00D9E3
:1012B0000C2B00AE0C2900850C29005C0C27003596
:1012C0000C27000E0C2600E80B2400C40B2400A001
:1012D0000B23007D0B23005A0B2100390B21001832
:1012E0000B2000F80A1F00D90A1E00BB0A1E009D31
:1012F0000A1D00800A1D00630A1C00470A1B002CFF
:101300000A1B00110A1A00F7091A00DD091900C4A6
:10131000091900AB091900920917007B091800632D
:101320000917004C09160036091600200916000A94
:10133000091500F5081500E0081400CC081400B8E1
:10134000081400A4081400900813007D0812006B14
:101350000813005808120046081200340811002330
:101360000811001208110001081100F0071000E038
:10137000071000D0071000C0071000B0070F00A131
:1013800007100091070E0083070F0074070F006518
:10139000070E0057070E0049070E003B070D002EF1
:1013A000070E0020070D0013070D0006070D00F9BA
:1013B000060C00ED060D00E0060C00D4060C00C87B
:1013C000060C00BC060C00B0060C00A4060B00992D
:1013D000060C008D060B0082060B0077060B006CD6
:1013E000060B0061060A0057060B004C060A004275
:1013F000060A0038060A002E060A0024060A001A09
:10140000060A001006090007060A00FD050900F497
:10141000050900EB050900E2050900D9050900D01E
:10142000050900C7050900BE050900B5050800AD9E
:10143000050800A50509009C050800940508008C16
:10144000050800840508007C050800740508006C88
:10145000050700650508005D050700560508004EF4
:10146000050700470507004005080038050700315B
:101470000507002A050700230507001C05060016BE
:101480000507000F0507000805060002050700FB19
:10149000040600F5040700EE040600E8040600E276
:1014A000040700DB040600D5040600CF040600C9CB
:1014B000040600C3040600BD040600B7040600B11C
:1014C000040500AC040600A6040600A00405009B69
:1014D00004060095040500900406008A04050085B2
:1014E000040500800406007A0405007504050070F8
:1014F0000405006B04050066040500610405005C3A
:1015000004050057040500520405004D0405004879
:10151000040500430405003E0404003A04050035B8
:10152000040500300404002C0405002704040023F3
:101530000405001E0404001A04040016040500112A
:101540000404000D04040009040500040404000060
:10155000040400FC030400F8030400F4030400F096
:10156000030400EC030400E8030400E4030400E0C7
:10157000030400DC030400D8030400D4030400D0F7
:10158000030400CC030400C8030300C503030024C4
:10159000F404D9201BC40C5C0E9804C4095F0265D6
:1015A000077101F405F900FB04B30048048700C18A
:1015B0000369005803550003034500BE023A008446
:1015C00002310053022A002902250004022000E40F
:1015D000011C00C8011900AF011700980114008414
:1015E000011300710110006101100051010E004350
:1015F000010D0036010B002B010B0020010B001523
:101600000109000C01090003010800FB000800F3B8
:10161000000800EB000700E4000600DE000600D82A
:10162000000600D2000600CC000500C7000500C27D
:10163000000500BD000400B9000400B5000400B1BD
:10164000000400AD000400A9000400A5000300A2EE
:101650000003009F0004009B000300980003009516
:1016600000020093000300900003008D0002008B35
:10167000000300880002008600020084000300814D
:101680000002007F0002007D0002007B0002007962
:101690000002007700010076000200740002007270
:1016A000000100710002006F0002006D0001006C7B
:1016B0000002006A00010069000200670001006684
:1016C0000001006500010064000200620001006189
:1016D000000100600001005F0002005D0001005C8D
:1016E0000001005B0001005A000100590001005890
:1016F0000001005700010056000100550001005490
:10170000000100530000005300010052000100518D
:10171000000100500001004F0001004E0000004E8B
:101720000001004D0001004C0001004B0000004B87
:101730000001004A00010049000100480000004883
:10174000000100470001004600000046000100457E
:101750000000004500010044000100430000004378
:101760000001004200000042000100410000004171
:10177000000100400001003F0000003F0001003E6A
:101780000000003E0001003D0000003D0001003C63
:101790000000003C0000003C0001003B0000003B5A
:1017A0000001003A0000003A000100390000003951
:1017B0000001003800000038000000380001003748
:1017C000000000370001003600000036000000363F
:1017D0000001003500000035000000350001003434
:1017E000000000340000003400010033000000332A
:1017F000000000330001003200000032000000321F
:101800000001003100000031000000310001003013
:1018100000000030000000300001002F0000002F09
:101820000000002F0000002F0001002E0000002EFD
:101830000000002E0001002D0000002D0000002DF2
:101840000000002D0001002C0000002C0000002CE6
:101850000000002C0001002B0000002B0000002BDA
:101860000000002B0001002A0000002A0000002ACE
:101870000000002A000100290000002900000029C2
:1018800000000029000000290001002800000028B5
:1018900000000028000000280000002800010027A8
:1018A000000000270000002700000027000000279C
:1018B000000100260000002600000026000000268F
:1018C0000000002600010025000000250000002582
:1018D0000000002500000025000000250001002474
:1018E0000000002400000024000000240000002468
:1018F000000100230000002300000023000000235B
:10190000000000230000002300000023000100224B
:10191000000000220000002200000022000000223F
:101920000000002200010021000000210000002131
:101930000000002100000021000000210000002123
:101940000001002000000020000000200000002016
:101950000000002000000020000000200000002007
:101960000001001F0000001F0000001F0000001FFA
:101970000000001F0000001F0000001F0001001EEB
:101980000000001E0000001E0000001E00000029D4
:101990000A002062797465733B20637263200053F0
:1019A000657474696E67732053746F726564202860
:1019B00000202863616C63756C6174656429210A79
:1019C0000020213D2000454550524F4D20435243B9
:1019D000206D69736D61746368202D202873746FA6
:1019E000726564292000290A002062797465733BBE
:1019F0002063726320002073746F726564207365C6
:101A00007474696E67732072657472696576656453
:101A1000202800204D61726C696E3D563532290ACE
:101A20000028454550524F4D3D00454550524F4DC1
:101A30002076657273696F6E206D69736D61746372
:101A400068200048617264636F6465642044656661
:101A500061756C742053657474696E6773204C6F84
:101A6000616465640A00D007000020030000640080
:101A7000000088130000000016430000C842000068
:101A80000041000048420000A0420000A0420000C7
:101A9000C8430000A04256652D6A65726B0056650A
:101AA0002D6A65726B0056652D6A65726B00567AF9
:101AB0002D6A65726B00567A2D6A65726B005679D5
:101AC0002D6A65726B0056792D6A65726B005679C6
:101AD0002D6A65726B0056782D6A65726B005678B8
:101AE0002D6A65726B0056782D6A65726B004D6FBA
:101AF00074696F6E004573746570732F6D6D00456A
:101B000073746570732F6D6D005A73746570732FE5
:101B10006D6D005A73746570732F6D6D0059737419
:101B20006570732F6D6D005973746570732F6D6DD3
:101B3000005873746570732F6D6D00587374657001
:101B4000732F6D6D004D6F74696F6E005374657007
:101B5000732F6D6D004A65726B00416363656C6540
:101B6000726174696F6E0056656C6F636974790099
:101B7000484F4D455F5A5F6F666673657400484F06
:101B80004D455F5A5F6F666673657400484F4D45FB
:101B90005F595F6F666673657400484F4D455F59C6
:101BA0005F6F666673657400484F4D455F585F6FA1
:101BB000666673657400484F4D455F585F6F666693
:101BC00073657400436F6E74726F6C0043616E6E68
:101BD0006F7420656E746572207375626469723A01
:101BE0002000022E2E000152656672657368004D5A
:101BF00061696E004578747275646572004D6F7628
:101C000065205A004D6F76652059004D6F7665202E
:101C100058005072657061726500496E697469613F
:101C20006C697A6520454550524F4D00436F6E7484
:101C3000726F6C00526573746F7265206661696CB7
:101C400073616665004C6F61642073657474696EBE
:101C5000677300496E697469616C697A65204545EE
:101C600050524F4D0053746F7265207365747469E0
:101C70006E6773004C434420636F6E7472617374BB
:101C8000004C434420636F6E7472617374004D6F37
:101C900074696F6E0054656D7065726174757265FC
:101CA000004D61696E005072656865617420414243
:101CB0005320636F6E6600507265686561742050D2
:101CC0004C4120636F6E66005049442D44005049DA
:101CD000442D44005049442D49005049442D4900A9
:101CE0005049442D50005049442D500046616E200B
:101CF00073706565640046616E207370656564008D
:101D000042656400426564004E6F7A7A6C65004EED
:101D10006F7A7A6C6500436F6E74726F6C005374E7
:101D20006F72652073657474696E677300426564D1
:101D300000426564004E6F7A7A6C65004E6F7A7A65
:101D40006C650046616E2073706565640046616E67
:101D50002073706565640054656D7065726174759B
:101D600072650020204E6F7A7A6C653A2000200060
:101D70004261636B004D696E696D756D2054656DD0
:101D800070206973203135302E0048656174696EAA
:101D900067206661696C6564004578747275646576
:101DA000206D6F726500526573756D652070726984
:101DB0006E7400524553554D45204F5054494F4E77
:101DC000533A0020204E6F7A7A6C653A200063689F
:101DD000616E6765006F66207468652066696C6176
:101DE0006D656E74005761697420666F722073743C
:101DF000617274005052494E54205041555345442D
:101E00000020204E6F7A7A6C653A200020006669C7
:101E10006C616D656E7420756E6C6F6164005761E6
:101E2000697420666F72005052494E5420504155DB
:101E30005345440020204E6F7A7A6C653A2000208A
:101E400000506C6561736520776169742E2E2E00D9
:101E500048656174696E67206E6F7A7A6C650050B0
:101E600052494E54205041555345440020204E6F56
:101E70007A7A6C653A2000200068656174206E6F84
:101E80007A7A6C652E005072657373206275747473
:101E90006F6E20746F005052494E5420504155537C
:101EA00045440020204E6F7A7A6C653A2000746FAA
:101EB00020636F6E74696E75652E2E2E00616E64E0
:101EC00020707265737320627574746F6E00496E52
:101ED000736572742066696C616D656E7400505232
:101EE000494E54205041555345440020204E6F7AAE
:101EF0007A6C653A2000200066696C616D656E74CD
:101F0000206C6F6164005761697420666F720050C5
:101F100052494E54205041555345440020204E6FA5
:101F20007A7A6C653A2000200066696C616D656E96
:101F300074206578747275646500576169742066F1
:101F40006F72005052494E54205041555345440041
:101F5000746F20726573756D6500576169742066D2
:101F60006F72207072696E74005052494E54205046
:101F700041555345440025753A25303275002530CA
:101F800032753A253032750025756420253032755A
:101F90003A25303275005A005900580009200000D7
:101FA00000000000000000000000007FFFE00000D3
:101FB000000000000000000000007000E0000000D1
:101FC00000000000000000000061F8600000000058
:101FD000000000000000000041F8200000000000A8
:101FE0000000000000000040F020000000000000A1
:101FF0000000000000004060200000000000000021
:1020000000000000005801A07F80000000000000D8
:10201000004104005C63A0FFC0000000000000005D
:102020002082005EF7A0FFC000000000000000203A
:1020300082005EF7A0FFC000000000000000410425
:10204000005C63A07F8000000000000000820800A8
:102050005801A07F80000000000000010410004033
:102060006020FFC00000000000000104100040F0EC
:1020700020FFC00000000000000082080041F8209E
:10208000FFC00000000000000041040061F8603F54
:1020900000000000000000000000007000E01E00D2
:1020A00000000000000001FFFF807FFFE00C000047
:1020B000000000000001FFFF8000000000000000A1
:1020C00000000000000000007FFFE00000000000B2
:1020D000000000000000007000E0000000000000B0
:1020E000000000000000630C600000000000000021
:1020F0000000000000470E2000000000000000006B
:10210000000000004F0F2000000000000000000051
:102110000000005F0FA000000000000000000000B1
:1021200000005E07A07F8000000000000000410466
:1021300000406020FFC0000000000000002082007E
:1021400040F020FFC000000000000000208200409E
:10215000F020FFC0000000000000004104004060CB
:10216000207F80000000000000008208005E07A0C1
:102170007F80000000000000010410005F0FA0FF3E
:10218000C0000000000000010410004F0F20FFC03D
:1021900000000000000000820800470E20FFC00081
:1021A000000000000000410400630C603F000000DC
:1021B00000000000000000007000E01E00000000B1
:1021C00000000001FFFF807FFFE00C000000000026
:1021D000000001FFFF8000000000060900FE000073
:1021E00000000001090008FE0000050808060000C4
:1021F00040F0C88888987810050808060000C0F8E4
:102200008888888888F80505050600012030F830A0
:10221000200508080600002070F820202020E00596
:1022200009090600FF2070A8A8B888887020050951
:10223000090600FFE080C0B0A82830282805090959
:102240000600FFF8A88888888888A8F8050A0A0682
:1022500000FE205050505088A8A888700303030641
:10226000000340A04043616E6E6F74206F70656E16
:102270002073756264697220006563686F3A005468
:102280004845524D414C2052554E415741590054FA
:102290006865726D616C2052756E6177617900625C
:1022A00065640A002C2073797374656D2073746FF4
:1022B0007070656421204865617465725F49443AB5
:1022C000200048656174696E67206661696C6564A9
:1022D0000048656174696E67206661696C656400B9
:1022E0001000AA038000400100012C01B00122016E
:1022F00040021001F00202018003F8004004F500E2
:10230000E004ED009005E4003006DD00E006D700B3
:102310008007D1003008CC00D008C7007009C30086
:10232000100ABE00B00ABB00500BB700900CB300FF
:10233000D00DAA00B00FA5005010A00010149600F8
:102340009016900010198C00501A8500301C8200E5
:1023500070227800B023750040256E0020276900A8
:10236000A0296400502A5F00902B5A00D02C550001
:10237000702D4F00E02E48005031450030334100B1
:10238000D03539006036370010373300F0382D0073
:10239000A0392700803C1C00403D1700F03D110093
:1023A000803E0900D03FE5FF4572723A204D494E0C
:1023B00054454D5020424544004572723A204D49E3
:1023C0004E54454D50004D494E54454D5020747269
:1023D00069676765726564004572723A204D4158BD
:1023E00054454D5020424544004572723A204D41BB
:1023F0005854454D50004D415854454D502074722D
:102400006967676572656400202F002042403A00CA
:1024100020403A0000060900FE0701920321207FB8
:10242000FF07FF07FF000000060000010707060284
:102430000080808080800080030202060105A0A049
:102440000507070600005050F850F85050050707E0
:102450000600002078A07028F0200507070600007D
:10246000C0C810204098180507070600006090A01B
:1024700040A89068020303060104C04080030707D8
:1024800006010020408080804020030707060100ED
:102490008040202020408005050506000120A8700E
:1024A000A8200505050600012020F82020020303CE
:1024B0000602FFC04080050101060003F802020287
:1024C000060200C0C0050505060001081020408076
:1024D000050707060000708888888888700307074A
:1024E00006010040C040404040E0050707060000EC
:1024F000708808708080F8050707060000F8102033
:10250000100808F005070706000010305090F8107A
:1025100010050707060000F880F008088870050716
:1025200007060000708080F08888700507070600A5
:1025300000F80810202020200507070600007088FA
:1025400088708888700507070600007088887808FA
:102550000870020505060200C0C000C0C0020606E1
:102560000602FFC0C000C04080040707060000103C
:10257000204080402010050303060002F800F80404
:10258000070706010080402010204080050707064D
:102590000000708808102000200507070600007062
:1025A000880868A8A870050707060000708888F8E2
:1025B000888888050707060000F08888F08888F07A
:1025C000050707060000708880808088700507076F
:1025D000060000F08888888888F005070706000054
:1025E000F88080F08080F8050707060000F88080FA
:1025F000F0808080050707060000708880B8888812
:1026000070050707060000888888F8888888010711
:102610000706020080808080808080050707060012
:102620000038101010109060050707060000889011
:10263000A0C0A090880507070600008080808080E9
:1026400080F805070706000088D8A88888888805CC
:1026500007070600008888C8A89888880507070625
:10266000000070888888888870050707060000F0D9
:102670008888F080808005070706000070888888B9
:10268000A89068050707060000F08888F0A09088E9
:10269000050707060000788080700808F005070726
:1026A000060000F820202020202005070706000053
:1026B00088888888888870050707060000888888C9
:1026C000888850200507070600008888888888A821
:1026D00050050707060000888850205088880507A5
:1026E000070600008888885020202005070706007C
:1026F00000F80810204080F8030707060100E0807A
:1027000080808080E00505050600018040201008DB
:10271000030707060100E02020202020E005030336
:10272000060004205088050101060000F80202029C
:1027300006020580400505050600007008788878C7
:102740000507070600008080B0C88888F0050505E9
:1027500006000070808088700507070600000808E2
:1027600068988888780505050600007088F88070EC
:102770000507070600003048E040404040050606D7
:102780000600FF708888780870050707060000803B
:1027900080B0C88888880107070602008000808012
:1027A0008080800308080601FF200020202020A050
:1027B00040040707060000808090A0C0A090030797
:1027C00007060100C04040404040E0050505060006
:1027D00000D0A8A8A8A8050505060000B0C88888EC
:1027E00088050505060000708888887005060606BD
:1027F00000FFF08888F080800506060600FF7888D4
:1028000088780808050505060000B0C880808005A6
:10281000050506000070807008F004070706000038
:102820004040E040404030050505060000888888AB
:10283000986805050506000088888850200505056C
:102840000600008888A8A8500505050600008850E5
:102850002050880506060600FF88888878087005DD
:102860000505060000F8102040F8030707060100E0
:102870002040408040402001070706020080808001
:102880008080808003070706010080404020404090
:102890008005020206000268900000000600005059
:1028A00072696E7420706175736564004D313235E4
:1028B00000004D3234005072696E742061626F7294
:1028C000746564004D3231004E6F205344206361C3
:1028D0007264004368616E676520534420636172CF
:1028E00064004D3231005072696E742066726F6DF3
:1028F0002053440053746F70207072696E740052DC
:102900006573756D65207072696E7400496E6974C7
:102910002E205344206361726400506175736520FA
:102920007072696E7400436F6E74726F6C005072D7
:1029300065706172650054756E6500496E666F2042
:1029400073637265656E00426162797374657020AD
:102950005A004D363030204230004368616E676562
:102960002066696C616D656E740042616279737492
:102970006570205A00466C6F7700466C6F77004692
:10298000616E2073706565640046616E20737065CA
:1029900065640042656400426564004E6F7A7A6C3B
:1029A00065004E6F7A7A6C650053706565640053FC
:1029B00070656564004D61696E00205A0020590001
:1029C00020204D3231312058004D696E20506F73F8
:1029D0002041646A3A0A0020204D323530204300FD
:1029E0004C434420436F6E74726173743A0A002042
:1029F000440020490020204D333031205000504900
:102A0000442073657474696E67733A0A0020460047
:102A100020420020480020204D3134352053004D05
:102A20006174657269616C2068656174757020708D
:102A30006172616D65746572733A0A002045002009
:102A40005A00205900205800204200205400202025
:102A50004D323035205300416476616E6365643ACF
:102A600020533C6D696E5F66656564726174653E96
:102A700020543C6D696E5F74726176656C5F66654B
:102A80006564726174653E20423C6D696E5F73657A
:102A9000676D656E745F74696D655F75733E205810
:102AA0003C6D61785F78795F6A65726B3E205A3C55
:102AB0006D61785F7A5F6A65726B3E20453C6D613F
:102AC000785F655F6A65726B3E0A00205400205291
:102AD0000020204D323034205000416363656C6526
:102AE000726174696F6E2028756E6974732F73320A
:102AF000293A20503C7072696E745F616363656C43
:102B00003E20523C726574726163745F61636365F9
:102B10006C3E20543C74726176656C5F61636365E2
:102B20006C3E0A00204500205A0020590020204D0C
:102B30003230312058004D6178696D756D204163E8
:102B400063656C65726174696F6E2028756E697457
:102B5000732F7332293A0A00204500205A00205969
:102B60000020204D3230332058004D6178696D755A
:102B70006D206665656472617465732028756E6981
:102B800074732F73293A0A00204500205A002059F7
:102B90000020204D39322058005374657073207026
:102BA000657220756E69743A0A0020204D3230300B
:102BB0002044300A0020204D323030204400204490
:102BC000697361626C65640A0046696C616D656E6B
:102BD000742073657474696E67733A0020204D31F8
:102BE00034392043203B20556E69747320696E2070
:102BF00043656C736975730A0020204732312020C9
:102C000020203B20556E69747320696E206D6D0A1B
:102C10000020746F6F206C6F6E672065787472751A
:102C200073696F6E2070726576656E7465640A00F4
:102C300020636F6C6420657874727573696F6E20A1
:102C400070726576656E7465640A0070012C01907F
:102C5000012701B0012201C0011D01F0011801107E
:102C600002130130020E016002090190020401C04A
:102C700002FF000003FA004003F5008003F000D0DB
:102C800003EB002004E6007004E100E004DC0040F7
:102C900005D700C005D2004006CD00D006C8008090
:102CA00007C3003008BE00F008B900C009B400B086
:102CB0000AAF00B00BAA00D00CA500000EA0005077
:102CC0000F9B00C01096005012910000148C00C0A1
:102CD000158700B0178200B0197D00D01B78000066
:102CE0001E730040206E0090226900F024640040B2
:102CF000275F0090295A00E02B5500102E5000202D
:102D0000304B0010324600E033410090353C00105B
:102D100037370070383200A0392D00B03A2800A0B3
:102D20003B2300603C1E00103D1900903D14001034
:102D30003E0F00703E0A00C03E0500003F0000400C
:102D40003FFBFF803FF6FFC03FF1FF5654726176B4
:102D5000206D696E005654726176206D696E005662
:102D600054726176206D696E00566D696E00566D05
:102D7000696E00566D696E00566D6178204500568B
:102D80006D6178204500566D6178204500566D6173
:102D900078205A00566D6178205A00566D6178206F
:102DA0005A00566D6178205900566D61782059009F
:102DB000566D6178205900566D6178205800566D27
:102DC0006178205800566D61782058004D6F746905
:102DD0006F6E00416D6178204500416D617820453E
:102DE00000416D6178205A00416D6178205A0041A0
:102DF0006D6178205900416D6178205900416D6105
:102E000078205800416D6178205800412D7472611E
:102E100076656C00412D74726176656C00412D728F
:102E200065747261637400412D72657472616374BC
:102E300000416363656C00416363656C004D6F74B2
:102E4000696F6E00526573656E643A20006F6B00A7
:102E50009CD76FD311241FBECFEFD0E4DEBFCDBF10
:102E600012E0A0E0B1E0ECE1F2ED01E00BBF02C046
:102E700007900D92A837B107D9F72FE0A8E7B2E085
:102E800001C01D92AF3EB207E1F717E1C9E2D7E1F9
:102E900004C02197FE010E9471E8C832D107C9F72A
:102EA0000E9490D30C9401E90C9400002F923F9261
:102EB0004F925F926F927F928F929F92AF92BF924A
:102EC000CF92DF92EF92FF920F931F93CF93DF93F6
:102ED000CDB7DEB7C258D1090FB6F894DEBF0FBE2A
:102EE000CDBF8091640F8D3409F4AEC2843511F4E6
:102EF0000C94A02B873411F00C94E22B8091620F7C
:102F00009091630F8B31910509F41FC264F497FF10
:102F100002C00C94FC2B8230910554F1049709F403
:102F2000CDC10C94FC2B8A35910509F43EC24CF4BA
:102F30004C9711F00C94FC2B80E00E949A3C0C946E
:102F4000FC2B8B35910509F434C28C35910511F0B9
:102F50000C94FC2B0E944E699AE7292E91E0392EA1
:102F60002BE7E22E23E0F22E00E0D12C10E04BC242
:102F700080916801882311F40C94FC2B39E1C32E55
:102F800033E0D32E4BE7E42E43E0F42E58E7A52E92
:102F900052E0B52E0AE711E064E0962E900ED801BB
:102FA0008D918D010E94C5348823D9F00E949234FE
:102FB000F5012081211104C020917C02222331F0EF
:102FC000D7012D913D914D915C9103C020E030E0FF
:102FD000A9010E9422E6F6016083718382839383B4
:102FE0000AC0F70180819181A281B381F6018083BB
:102FF0009183A283B383F4E0CF0ED11C24E0E20ED0
:10300000F11C3FEFA31AB30A9012C9CF86E40E94C5
:10301000F4348823C9F00E94923420E030E0A90102
:103020000E94A5E7181684F40E94923420E030E054
:1030300040E752E40E94A5E660930001709301010D
:1030400080930201909303018091CC0E83FD2AC0EE
:1030500060912503709126038091270390912803A6
:1030600020918703309188034091890350918A030E
:10307000E091330BEE23B1F00E9421E69B01AC01FD
:103080006091250B7091260B8091270B9091280B56
:103090000E9422E66093250B7093260B8093270BEA
:1030A0009093280B80910601882309F454C020E0F6
:1030B00030E046E153E46091190370911A03809166
:1030C0001B0390911C030E94A5E7181664F480E08E
:1030D00090E0A6E1B3E48093190390931A03A093C0
:1030E0001B03B0931C0320E030E046E153E4609101
:1030F0001D0370911E0380911F03909120030E9475
:10310000A5E7181664F480E090E0A6E1B3E48093AC
:103110001D0390931E03A0931F03B093200320E090
:1031200030E046E153E460912103709122038091E5
:103130002303909124030E94A5E7181664F480E00D
:1031400090E0A6E1B3E48093210390932203A0933F
:103150002303B09324030E94CC368091CC0E83FDD0
:1031600086C0C0902503D0902603E0902703F090FE
:10317000280320918703309188034091890350915F
:103180008A03C701B6010E94BFE1882309F46FC01A
:103190000E945F49882301F1C0928703D09288037F
:1031A000E0928903F0928A03E9E7F2E284918F01C9
:1031B0000F5F1F4F882321F00E94D736F801F6CF0A
:1031C000E2E5F1E084918F010F5F1F4F882321F02A
:1031D0000E94D736F801F6CFC0902503D090260381
:1031E000E0902703F0902803209187033091880313
:1031F0004091890350918A03C701B6010E9421E6DC
:103200009F77E091F80244E0E49FF0011124E05937
:10321000FE4F20813181428153810E9425E220E0CE
:1032200030E04AE754E40E94A5E7181604F5C0927E
:103230008703D0928803E0928903F0928A03E9E73A
:10324000F2E284918F010F5F1F4F882321F00E94CB
:10325000D736F801F6CFE3E3F1E084918F010F5FF9
:103260001F4F882321F00E94D736F801F6CF6091D6
:10327000760170917701072E000C880B990B0E9444
:10328000C6E120910001309101014091020150916D
:1032900003010E9425E22AE037ED43E25CE30E944D
:1032A00025E20E942D3380E1E9E1F3E0ABE7B3E0F2
:1032B00001900D928A95E1F70C94FC2B80E50E9419
:1032C000F434882329F00E944E346B017C0103C042
:1032D000C12CD12C760183E50E94F434882361F05F
:1032E0000E94923420E030E04AE754E40E9425E254
:1032F0000E941EE76B017C010E944E6980911F01B4
:10330000811105C060E08DE691E00E9472AB0E94E1
:10331000CC368091110390911203A0911303B091C8
:103320001403C80ED91EEA1EFB1E0E942159DC019F
:10333000CB018C199D09AE09BF09B7FD02C00C94E1
:10334000FC2B80E00E94044AF0CF0E945F54811160
:103350000C94FC2B80E090E0A0E5B1EC89839A838B
:10336000AB83BC8380E090E0A0E2B1E48D839E83D8
:10337000AF83B88780E090E0A0EAB1E489879A87BC
:10338000AB87BC8780E50E94F434882319F00E9443
:103390005E3401C060E068A3BE016F5F7F4FCE0165
:1033A00080960E9468D10C94FC2B10927C020C94A5
:1033B000FC2B81E080937C020C94FC2B0E949234C5
:1033C0002B013C01F70120813181428153810E9410
:1033D00021E64B015C012DEB37E346E855EB0E94FB
:1033E000A5E787FD18C02DEB37E346E855E3C50197
:1033F000B4010E94BFE1181674F01F5FB4E0EB0E39
:10340000F11C1430A9F0D1018D911D010E94F434FA
:10341000882399F3D3CF133019F0DD24D39401C05E
:1034200001E0D7014D925D926D927C921397E5CFAA
:10343000DD2019F00E94D03303C001110E945A55BB
:103440000E94CC3B0C94FC2B8091620F9091630FF7
:103450008037910509F4ACC60CF0B9C08B349105E6
:1034600009F4BAC40CF06AC08831910509F47CC231
:10347000BCF58231910511F40C944222C4F497FFFB
:1034800002C00C94FC2B823091050CF489C1419749
:1034900011F00C94FC2B60E084EA91E00E9472AB86
:1034A000179817981798179817980C94FC2B853134
:1034B000910509F43EC23CF4449711F00C94FC2BA6
:1034C000ECEBF1E0F3C18631910509F436C2479780
:1034D00011F00C94FC2BE091600FF091610F37C25A
:1034E0008C31910509F4A8C2B4F48A31910509F42C
:1034F00059C20CF065C21092360B8BE09BE00E9423
:1035000077A68DEC91E09093B0058093AF050E9473
:1035100070330C94FC2B8F31910509F4F1C32CF41A
:103520004E9709F493C20C94FC2B8032910509F458
:103530009BC38A9709F410C40C94FC2B8C3591051D
:1035400011F40C94942214F58135910509F47AC78D
:1035500064F48D34910509F449C40CF441C48E34EB
:10356000910509F447C40C94FC2B8335910509F4AB
:1035700084C70CF47EC78435910509F483C785356B
:10358000910511F40C9479220C94FC2B8B36910547
:1035900009F4CCC664F48936910509F42DC60CF003
:1035A000A0C68836910509F437C50C94FC2B8D36DE
:1035B000910509F45FC60CF4F7C58E36910509F440
:1035C0006FC58F36910509F47EC50C94FC2B833DA5
:1035D000910511F40C940B260CF06AC08C389105FF
:1035E00009F4EEC574F58637910511F40C947A232D
:1035F000ACF48337910511F40C941D2385379105A4
:1036000011F40C9471238237910511F00C94FC2B6A
:103610000E944E690E94CC3B0C94FC2B883791058C
:1036200011F40C943B2414F40C94B92389379105BC
:1036300011F40C9441248D37910509F489C60C943A
:10364000FC2B883C910511F40C94BD247CF48B393F
:10365000910509F4E8C58E3B910509F426C6813928
:10366000910511F00C94FC2B0C9446248B3C910595
:1036700011F40C94192584F4893C910511F00C94F3
:10368000FC2B61E0E62E6FE0F62E0AE711E074E015
:10369000D72ED00E0C9401258C3C910511F40C947E
:1036A00036258D3C910511F40C94A0250C94FC2B2F
:1036B0008336E1E09E0711F40C94722B94F58A3F57
:1036C000910511F40C94ED268CF48D3D910511F4C7
:1036D0000C949526823E910511F40C94DA268C3DCB
:1036E000910511F00C94FC2B0C9488268D3221E06E
:1036F000920711F40C94EA263CF48232914011F4C2
:103700000C94DD260C94FC2B8E3251E0950711F4BD
:103710000C94F0268F32914011F40C94F3260C9403
:10372000FC2B863FB1E09B0711F40C945A2AF4F469
:103730008A39F1E09F0709F43FC54CF48039914084
:1037400011F00C94FC2B0E944E690C94FC2B843FCE
:1037500041E0940711F40C94572A853F914011F0F1
:103760000C94FC2B0E94FE740C94FC2B8835A2E078
:103770009A0711F40C94692A3CF4873F914011F4A4
:103780000C945D2A0C94FC2B803AF3E09F0709F41B
:10379000AAC2873E934011F40C948B2B0C94FC2B03
:1037A000A090600FB090610F80E50E94F4348823F0
:1037B00059F00E944E346B017C0111E0672B682B9D
:1037C000692B31F410E004C010E0C12CD12C76013B
:1037D00083E50E94F4348823F1F00E94923420E0C3
:1037E00030E04AE754E40E9425E20E941EE76B01A4
:1037F0007C01111112C0672B682B692B71F4A11485
:10380000B10459F0D5018C91882339F061E0C501EC
:103810000E9493AB07C0112391F360E081E991E02E
:103820000E9472AB81E08093AA0E0E944E690E94B2
:10383000CC36C114D104E104F104F1F080911103FC
:1038400090911203A0911303B0911403C80ED91ED6
:10385000EA1EFB1E0E942159DC01CB018C199D0937
:10386000AE09BF09B7FF1EC08091AA0E8823D1F010
:1038700080E00E94044AEECF8091AA0E882321F0B6
:1038800080E00E94044AF8CF80910B0B90910C0BC2
:1038900060E0029719F485E891E002C086E791E0C4
:1038A0000E9472AB1092AA0E0C94FC2B84918F0193
:1038B0000F5F1F4F882321F00E94D736F801F6CF03
:1038C0001092BC0D1092BB0D40E050E0BA0187E6AB
:1038D0009BE00E9418618BE1E7E6FBE0DE011596B4
:1038E00001900D928A95E1F78091650B9091660B9E
:1038F0009C838B8386EC91E09A83898340E050E03F
:10390000BE016F5F7F4F85E792E00E94F99DCE0177
:1039100001960E947F49EDEAF1E084918F010F5FEB
:103920001F4F882311F40C94FC2B0E94D736F8010A
:10393000F4CF0E94DA520C94FC2B1092360B1092AA
:10394000370B0C94FC2B803209F410823196808165
:103950008111F9CF40E061E08091600F9091610F9B
:103960000E948E4F0C94FC2B19821A821B821C829F
:1039700018A219A21AA21BA280912903882339F048
:10398000BE016F5F7F4FCE0180960E94ED4C80910B
:10399000370B882319F081E08093360B0E94FD5489
:1039A0000C94FC2B8091370B882311F40C94FC2B86
:1039B00083E50E94F43481110C94FF2B0C94FC2BB2
:1039C0008091370B882351F1E2EDF1E084918F0172
:1039D0000F5F1F4F882321F00E94D736F801F6CFE2
:1039E0006091B20D7091B30D8091B40D9091B50DB1
:1039F0004AE00E946A3A8FE20E94D7366091AE0D8B
:103A00007091AF0D8091B00D9091B10D4AE00E9480
:103A10006A3A8AE00E94D7360C94FC2BE4EEF1E07F
:103A200084918F010F5F1F4F882311F40C94FC2B9E
:103A30000E94D736F801F4CF40E060E08091600F3B
:103A40009091610F0E948E4F0C94FC2B8091370B4C
:103A5000882311F40C94FC2B81E09DE00E94E5602A
:103A600081E09DE00E94D4451092350B1092340BFA
:103A7000E090600FF090610F8091370B882311F474
:103A80000C94FC2B0E947E9B1D8218861C821B823C
:103A900086EC91E09A83898383E69BE09093830B85
:103AA0008093820BF70180818F3209F068C06FE24A
:103AB00070E0C7010E94BEE88C010F5F1F4F9E019E
:103AC0002F5F3F4F49010115110509F45EC06FE2F8
:103AD00070E0C8010E94BEE86C01009709F456C06E
:103AE0000817190708F052C05C01A01AB10AA50115
:103AF000B801CE0180960E94E7E8E0E2F0E0EC0F2A
:103B0000FD1FEA0DFB1D10828E01005E1F4FD801C4
:103B10008D918D01882319F00E94D736F8CF8AE065
:103B20000E94D7366091820B7091830B61157105ED
:103B300011F06C5F7F4F21E0AE01405E5F4FCE0120
:103B400005960E940C67811112C0BE01605E7F4F16
:103B50008BE192E00E94DF708EE20E94D7368AE00D
:103B60000E94D736C4010E947F490C94FC2B90928E
:103B7000830B8092820B86010F5F1F4FA4CF84E8D6
:103B80009BE09093830B8093820B87016091820B63
:103B90007091830B6115710511F06C5F7F4F18A256
:103BA0001BA222E0A801CE0180960E940C67811121
:103BB00002C0F12C14C0CE0180960E94EC9A88239A
:103BC000C1F361E0CE0180960E94DD45009789F344
:103BD00025EEFC0120831BA20E94F25EF82ECE018E
:103BE00080960E941D36FF2009F1E5EFF1E08491F7
:103BF0007F012FEFE21AF20A882321F00E94D736C4
:103C0000F701F5CFD8018D918D01882319F00E941D
:103C1000D736F8CF8AE00E94D7361092B20D1092B4
:103C2000B30D1092B40D1092B50D18C0E3E0F2E0A0
:103C300084917F01BFEFEB1AFB0A882321F00E94D9
:103C4000D736F701F5CFF80181918F01882319F05C
:103C50000E94D736F8CF8EE20E94D736CE01019669
:103C60000E947F490C94FC2B8091360B81110E949D
:103C70004E698091370B882311F40C94FC2B80E55E
:103C80000E94F434882319F00E94823403C080E536
:103C90000E94C534182F482F61E08091600F9091E9
:103CA000610F0E948E4F83E50E94F434882381F0D7
:103CB0000E945E34AB01BC014093B20D5093B30D32
:103CC0006093B40D7093B50D81E09DE00E94186182
:103CD0008091370B882319F081E08093360B111106
:103CE0000C94FC2B5BCE8091600F9091610F21E0D2
:103CF0002093350B40E060E00E948E4F0C94FC2B2B
:103D00008BE09BE00E944AA668A379A38AA39BA3A9
:103D1000BE016F5F7F4FCE0180960E945D3560E0EF
:103D2000CE0101960E9493ABE9E7F2E284918F0104
:103D30000F5F1F4F882321F00E94D736F801F6CF7E
:103D4000BE016F5F7F4F8FE292E00E94DF708AE0DA
:103D50000E94D7360C94FC2B83E50E94F434882310
:103D600011F40C94FC2B0E946E34D82E80E50E9436
:103D7000F434882311F40C94FC2B0E945E34C62E7C
:103D8000E62EF72EF7FE02C00C94FC2BECE3F2E0DB
:103D90008BE28E0F9491C91629F031968E13FACFCB
:103DA0000C94102CE3EBFDE084918F010F5F1F4F0B
:103DB000882321F00E94D736F801F6CFE7E6F2E03B
:103DC00084918F010F5F1F4F882311F40C94FC2BFB
:103DD0000E94D736F801F4CF0E94FD540C94FC2BBE
:103DE0008BE09BE00E9477A60C94FC2B0E94A69B84
:103DF0000C94FC2B83E50E94F434882359F00E9434
:103E00005E346E34710531F48BE09BE00E941471D6
:103E10000C94FC2B18A219A21AA21BA2E6EDF2E048
:103E200084918F010F5F1F4F882321F00E94D736A6
:103E3000F801F6CFEDECF2E084918F010F5F1F4F98
:103E4000882321F00E94D736F801F6CF6091190B34
:103E500070911A0B80E090E04AE00E946A3AE0EC30
:103E6000F2E084918F010F5F1F4F882321F00E94A1
:103E7000D736F801F6CF60911B0B70911C0B80E0D8
:103E800090E04AE00E946A3AE5EBF2E084918F010B
:103E90000F5F1F4F882321F00E94D736F801F6CF1D
:103EA0006091190B70911A0B80911B0B90911C0B58
:103EB000681B790B80910B0B90910C0B019721E003
:103EC00030E0029710F020E030E0621B730B80E0DE
:103ED00090E04AE00E946A3A8AE00E94D736EDEA12
:103EE000F2E084918F010F5F1F4F882321F00E9421
:103EF000D736F801F6CF80911D0B90911E0BA09143
:103F00001F0BB091200B88A399A3AAA3BBA3BE014A
:103F10006F5F7F4FCE0180960E945D35E0EAF2E050
:103F200084918F010F5F1F4F811106C09E012F5F8B
:103F30003F4F7901890104C00E94D736F801F0CFC4
:103F4000D8018D918D01882319F00E94D736F8CFC2
:103F50008091210B9091220BA091230BB091240B07
:103F600088A399A3AAA3BBA3BE016F5F7F4FCE0115
:103F700080960E945D35E0E9F2E084918F010F5F49
:103F80001F4F882321F00E94D736F801F6CFF701A2
:103F900081917F01882319F00E94D736F8CF8AE0FB
:103FA0000E94D736E8E8F2E084918F010F5F1F4F3F
:103FB000882321F00E94D736F801F6CFE8E7F2E037
:103FC00084918F010F5F1F4F882321F00E94D73605
:103FD000F801F6CF20E030E04AE754E46091250B89
:103FE0007091260B8091270B9091280B0E94A5E6DB
:103FF00042E00E94573BE6E7F2E084918F010F5FB9
:104000001F4F882321F00E94D736F801F6CF8AE0AF
:104010000E94D7360C94FC2B8091F8028093590EA5
:104020008091CC0E83FF02C00C94FC2B83E50E9490
:10403000F434882311F40C94FC2B0E9492340E94D7
:1040400017E77093330F6093320F80E00E94CDA189
:104050000E9492342091F9023091FA024091FB02C1
:104060005091FC020E94A5E7181614F00C94FC2B4A
:1040700081EF91E09F938F938091590E90E001968C
:104080009F938F938EED92E09F938F931F920E9448
:10409000899B0FB6F894DEBF0FBECDBF0C94FC2BEE
:1040A0008EE40E94F434882311F40C94FC2B0E94BB
:1040B0005E346093A0037093A1038093A203909356
:1040C000A3030C94FC2B83E50E94C534882359F08C
:1040D00083E50E94F434882319F00E946E3401C0F5
:1040E00080E08093CC0EE9E7F2E284918F010F5FCC
:1040F0001F4F882321F00E94D736F801F6CFE3EF57
:10410000F2E084918F010F5F1F4F882321F00E94FE
:10411000D736F801F6CF8091CC0E8823A1F185EE39
:10412000C82E82E0D82EE12CF12C20E08091CC0E1C
:1041300090E00E2C02C0959587950A94E2F780FFD7
:1041400017C0BB24B394B20E222319F08CE20E9454
:10415000D736F60125913491F901849189010F5FD9
:104160001F4F882321F00E94D7369801F5CF2B2DC1
:10417000FFEFEF1AFF0A32E0C30ED11C45E0E41650
:10418000F104A1F60CC0EFEEF2E084918F010F5F15
:104190001F4F882321F00E94D736F801F6CF8AE01E
:1041A0000E94D7360C94FC2B10926F010C94FC2BC0
:1041B0008AEF92E00E9492490E942C360C94FC2BCC
:1041C0008091CC0E83FF02C00C94FC2B83E50E94EF
:1041D000F434882311F40C94FC2B0E9492340E9436
:1041E00017E76338710514F062E870E07093370FD9
:1041F0006093360F0C94FC2B8091F8028093590E3B
:10420000E3E0F3E084918F010F5F1F4F882321F0DB
:104210000E94D736F801F6CF0E9441A18AE00E94A1
:10422000D7360C948B3183E50E94F434882311F443
:104230000C94FC2B0E946E34182F8D3308F01CE375
:1042400010930E030E9421596B017C01212F30E055
:10425000A8EEB3E00E9412E6C60ED71EE81EF91EB5
:10426000C0920A03D0920B03E0920C03F0920D036C
:104270000C94FC2B8091F8028093590E8091CC0E07
:1042800083FF02C00C94FC2B83E50E94F4346096FB
:104290008FAF609781110C948C2C82E50E94F434CE
:1042A00081110C948C2C0C94FC2B8091CC0E83FFF0
:1042B00002C00C94FC2B60E08DE293E00E9472AB94
:1042C00083E50E94F43460968FAF609781110C945F
:1042D0000E2E82E50E94F43481110C940E2E0C9463
:1042E000FC2B80E50E94F434811108C083E50E9414
:1042F000F434811109C03FEF20E00AC00E946E34FF
:1043000081110C94FC2BF2CF0E945E34362F272FA4
:10431000832F922F8F3F910519F010F08FEF90E0CF
:104320009093350F8093340F0C94FC2B80E50E9402
:10433000F434811106C01092350F1092340F0C9492
:10434000FC2B0E945E34672B11F00C94FC2BF3CFF6
:104350008CE40E94C534882319F00E94923404C072
:1043600060E070E080E890EC6BAF7CAF8DAF9EAF0B
:1043700080E090E0A0E5B1EC89839A83AB83BC83B5
:1043800080E090E0A0E2B1E48D839E83AF83B887A4
:1043900080E090E0A0EAB1E489879A87AB87BC8788
:1043A00088E50E94F434882379F088E50E94F4348B
:1043B000882319F00E94923403C060E070E0CB01C2
:1043C00069837A838B839C8389E50E94F4348823F4
:1043D00079F089E50E94F434882319F00E94923420
:1043E00003C060E070E0CB016D837E838F8398878C
:1043F0008AE50E94F434882379F08AE50E94F43437
:10440000882319F00E94923403C060E070E0CB0171
:1044100069877A878B879C8718A219A21AA21BA288
:104420008091290381110C94FC2B20E0AE01405EA9
:104430005F4FBE016F5F7F4FCE01CB960E941B4C3A
:104440000C94FC2B0E9418A20E944E690E9487497E
:104450001092350F1092340F68EE73E080E090E018
:104460000E94FB5D60E08AE393E00E9472AB0C94D3
:10447000FC2B10927B020C94FC2B81E080937B023E
:104480000C94FC2B83E50E94F4348823A1F00E9455
:10449000923420E030E04AE754E40E9425E20E9492
:1044A0001EE76093070170930801809309019093C0
:1044B0000A010C94FC2B88E50E94C53481110C94F0
:1044C0006D2F89E50E94C53481110C946D2F8AE50A
:1044D0000E94C53481110C946D2F85E40E94C5346F
:1044E00081110C946D2F0E944E690E9487490C9493
:1044F000FC2B83E50E94C534882311F40C94FC2B1B
:104500000E94923420E030E04AE754E40E9425E221
:104510000E941EE7609315037093160380931703A0
:10452000909318030C94FC2B1AE7C12E11E0D12EA6
:104530000BE8E02E03E0F02E10E0D6018D916D0126
:104540000E94C534882309F46DC0133009F063C09C
:104550000E9492344B015C0120E030E040EA51E4DB
:104560000E94BFE187FF4EC0A501940160919703AF
:10457000709198038091990390919A030E94A5E607
:104580002B013C019B01AC0160911B0A70911C0A3C
:1045900080911D0A90911E0A0E9425E260931B0AD9
:1045A00070931C0A80931D0A90931E0AA301920126
:1045B0006091FD0E7091FE0E8091FF0E9091000FA4
:1045C0000E9425E26093FD0E7093FE0E8093FF0E15
:1045D0009093000F60917F07709180078091810711
:1045E000909182070E94C4E1A30192010E9425E2FA
:1045F0000E941EE760937F07709380078093810776
:10460000909382078092970390929803A0929903C7
:10461000B0929A0307C00E949234F70160837183BD
:10462000828393831F5FF4E0EF0EF11C143009F0D6
:1046300084CF0E9457720C94FC2BEBEFF3E0849133
:104640008F010F5F1F4F882321F00E94D736F8019A
:10465000F6CF60E08BEE93E00E94133B61E084EEC6
:1046600093E00E94133B61E089ED93E00E94133BCD
:1046700061E089EC93E00E94133B60E080EC93E002
:104680000E94133B61E086EB93E00E94133B60E0E5
:104690008CEA93E00E94133B60E084EA93E00E947E
:1046A000133B60E086E993E00E94133B60E088E8FA
:1046B00093E00E94133B60E089E793E00E94133B84
:1046C00060E08BE693E00E94133B60E085E593E0B9
:1046D0000E94133B60E084E493E00E94133B0C943F
:1046E000FC2B60E08091600F9091610F0E9493AB72
:1046F0000C94FC2B85E40E94F434882319F00E946A
:10470000823403C085E40E94C534882361F0E9E760
:10471000F2E284918F010F5F1F4F882321F00E94E6
:10472000D736F801F6CF81E40E94F434882319F0DB
:104730000E94823403C081E40E94C534882361F062
:10474000EDEBF4E084918F010F5F1F4F882321F080
:104750000E94D736F801F6CF0091600F1091610FDB
:10476000D8018D918D01882309F419CD0E94D73687
:10477000F7CFE4EEF4E084918F010F5F1F4F8823A1
:1047800021F00E94D736F801F6CFECEDF4E08491E9
:104790008F010F5F1F4F882321F00E94D736F80149
:1047A000F6CF359B03C002EE11E002C007EE11E028
:1047B000F80181918F01882319F00E94D736F8CF34
:1047C0008AE00E94D736E4EDF4E084918F010F5F18
:1047D0001F4F882321F00E94D736F801F6CF329B75
:1047E00003C002EE11E002C007EE11E0D8018D9186
:1047F0008D01882319F00E94D736F8CF8AE00E94F5
:10480000D736ECECF4E084918F010F5F1F4F8823C3
:1048100021F00E94D736F801F6CF4D9B03C002EE7F
:1048200011E002C007EE11E0F80181918F018823A9
:1048300019F00E94D736F8CF8AE00E94D736E1EC13
:10484000F4E084918F010F5F1F4F882321F00E94B5
:10485000D736F801F6CF069B03C002EE11E002C086
:1048600007EE11E0D8018D918D01882309F497CCD2
:104870000E94D736F7CF81E080930A0B8093090B13
:10488000BBC710920A0B1092090BB6C783E50E94B2
:10489000F434882319F00E945E3402C060E070E0B6
:1048A0008B01112702301105CCF0E3EBFDE0849180
:1048B0008F010F5F1F4F882321F00E94D736F80128
:1048C000F6CFEEEFF4E084918F010F5F1F4F882346
:1048D00009F492C70E94D736F801F5CF88E40E9408
:1048E000F4348823A9F00E945E34663971053CF0E7
:1048F0006530B1E07B072CF064E071E002C066E94E
:1049000070E0F801EE0FFF1FE15CF54F71836083EB
:1049100086E40E94F4348823A9F00E945E34F801F2
:10492000EE0FFF1FED5BF54F718360836F3F7105E5
:1049300019F014F06FEF70E077FF02C060E070E0F4
:104940007183608382E40E94F434882309F454C79D
:104950000E945E346530710534F0643771052CF0C7
:1049600063E770E002C065E070E0000F111FF8011E
:10497000E55CF54F718360833FC78091F8028093B7
:10498000590E84E40E94C5348823C1F10E949234F8
:1049900011E020E030E0A9010E94BFE1811101C0D7
:1049A00010E01093D70E112349F10E949234E09148
:1049B000590E24E0E29FF0011124E852F14F608388
:1049C00071838283938320E030E0A9016091D80E47
:1049D0007091D90E8091DA0E9091DB0E0E94BFE1AA
:1049E00081110CC080E090E0A0EEBFE38093D80E70
:1049F0009093D90EA093DA0EB093DB0E0E940FC3F2
:104A0000FBC6D8018D918D010E94C534882349F0E1
:104A10000E9492340E941EE7F701608371838283B3
:104A20009383F4E0EF0EF11CD012EBCF0E942A71B9
:104A3000E3C641EFE42E4EE0F42E0AE711E054E025
:104A4000D52ED00ED8018D918D010E94C5348823BA
:104A500039F00E949234F7016083718382839383DB
:104A6000F4E0EF0EF11CD012EDCFC6C683E50E9434
:104A7000C5348823D9F00E949234AB01BC01409325
:104A8000190F50931A0F60931B0F70931C0F4093D4
:104A9000110F5093120F6093130F7093140F8AE746
:104AA00095E00E94A9708AE00E94D73680E50E94B6
:104AB000C534882399F00E949234AB01BC01409325
:104AC000190F50931A0F60931B0F70931C0F8DE5F5
:104AD00095E00E94A9708AE00E94D73682E50E9484
:104AE000C534882399F00E949234AB01BC014093F5
:104AF000150F5093160F6093170F7093180F8EE3D6
:104B000095E00E94A9708AE00E94D73684E50E9451
:104B1000C534882309F470C60E949234AB01BC01ED
:104B20004093110F5093120F6093130F7093140F53
:104B300080E295E00E94A9708AE00E94D7365CC6A8
:104B400083E50E94C534882351F00E94923460931B
:104B5000ED0E7093EE0E8093EF0E9093F00E84E5C1
:104B60000E94C534882351F00E9492346093E90E6C
:104B70007093EA0E8093EB0E9093EC0E82E40E9409
:104B8000C534882351F00E944E346093DC0E70933C
:104B9000DD0E8093DE0E9093DF0E88E50E94C53413
:104BA000882351F00E94923460930F0A7093100A88
:104BB0008093110A9093120A89E50E94C5348823D4
:104BC00051F00E9492346093130A7093140A8093F8
:104BD000150A9093160A8AE50E94C534882351F07D
:104BE0000E9492346093170A7093180A8093190AEE
:104BF00090931A0A85E40E94C534882309F4FCC501
:104C00000E94923460931B0A70931C0A80931D0AC1
:104C100090931E0AF1C5E9E7F2E284918F010F5FDC
:104C20001F4F882321F00E94D736F801F6CF83E585
:104C30000E94C534882321F00E94823480930601AB
:104C4000EAECF5E084918F010F5F1F4F882321F07C
:104C50000E94D736F801F6CF80910601811103C07A
:104C6000E6ECF5E002C0E2ECF5E084918F010F5F25
:104C70001F4F882321F00E94D736F801F6CFEAEBC8
:104C8000F5E084918F010F5F1F4F882321F00E9470
:104C9000D736F801F6CF40E050E0BA0188EB95E056
:104CA0000E94A97040E050E0BA0185EB95E00E94B7
:104CB000A97040E050E0BA0182EB95E00E94A97033
:104CC000EAEAF5E084918F010F5F1F4F882321F0FE
:104CD0000E94D736F801F6CF40E050E066E173E479
:104CE00088EA95E00E94A97040E050E066E173E434
:104CF00085EA95E00E94A97040E050E066E173E427
:104D000082EA95E00E94A9708AE00E94D73674C5B5
:104D100083E50E94F434882309F46EC50E945E3452
:104D2000709377016093760167C58091F802809354
:104D3000590E83E50E94F434882309F45DC500917F
:104D4000590E10E00E945E34000F111FF801EC585C
:104D5000FE4F718360838091590E90E08C01000FAB
:104D6000111F000F111F980120593E4F7901880F24
:104D7000991FFC01EC58FE4F60817181072E000CD9
:104D8000880B990B0E94C6E12AE037ED43E25CE311
:104D90000E9425E2F801E353F14F208131814281E5
:104DA00053810E9425E2D7016D937D938D939C934F
:104DB000139722C50E9401351FC58AE50E94F4346D
:104DC00081110C948A2F83E50E94F43481110C9494
:104DD0008A2F12C50E9434370FC50E94D23A0CC5E3
:104DE0000E94DE3609C585E40E94F434882321F050
:104DF0000E945E347B0102C0E12CF12C83E40E940E
:104E0000F434882331F00E945E34A9966FAFA997DD
:104E100004C025E0A9962FAFA99785E50E94F43438
:104E2000882319F00E94823403C085E50E94C534AE
:104E3000E5968FAFE597F7FC07C0812C912CB6E182
:104E4000AB2EB3E4BB2E06C0812C912CACE8AA2E6D
:104E5000A2E4BA2E83E50E94F434882321F00E9454
:104E600092344B015C01E114F10411F41092590EDB
:104E70000E9421592B013C01E11003C00CEF11E00D
:104E80000BC00FE012E0D8018D918D01882309F449
:104E900086C90E94D736F7CFF80181918F01882308
:104EA00019F00E94D736F8CFC501B4010E9417E768
:104EB000072E000C880B990B0E94C6E160966FAF1D
:104EC000609761967FAF619765968FAF659766969D
:104ED0009FAF6697A301920120543B424E4F5F4F14
:104EE000C358DF4F288339834A835B83CD57D04033
:104EF0008AE00E94D7360E9418A28FE78093580E4E
:104F000081E080936F01E0964CAE5DAE6EAE7FAEF9
:104F1000E097E9964CAE5DAE6EAE7FAEE997AC968B
:104F20001FAEAC97ED961CAE1DAE1EAE1FAEED973C
:104F300069961FAE699730E46A963FAF6A974CE175
:104F40006B964FAF6B9756E46C965FAF6C976D9610
:104F50001FAE6D976E961FAE6E976F961FAE6F97D2
:104F6000A0961FAEA097A8961CAE1DAE1EAE1FAE9B
:104F7000A897A4961CAE1DAE1EAE1FAEA497C12C62
:104F8000D12C7601FFE78F2E912CA12CB12C8FE72D
:104F900090E0A0E0B0E02F968CAF9DAFAEAFBFAF7A
:104FA0002F97E4961CAE1DAE1EAE1FAEE49791E0A7
:104FB000AB969FAFAB9768961FAE1EAE689710E09A
:104FC000212C312C00E0A996AFADA9970A2E000C38
:104FD000BB0BAA96BFAFAEAFAA9780916F01882393
:104FE00009F402C10E9421592B966CAF7DAF8EAFA0
:104FF0009FAF2B978091550E882309F4D1C00E9452
:10500000D6A21091F9022090FA023090FB02009192
:10501000FC02212F322D432D502F6D966FAD6D97D1
:105020006E967FAD6E976F968FAD6F97A0969FAD82
:10503000A0970E94BFE187FF0CC06D961FAF6D97D0
:105040006E962FAE6E976F963FAE6F97A0960FAF8E
:10505000A097212F322D432D502F69966FAD699760
:105060006A967FAD6A976B968FAD6B976C969FAD86
:105070006C970E94A5E7181664F469961FAF6997AC
:105080006A962FAE6A976B963FAE6B976C960FAF92
:105090006C97AB96BFADAB9760962FAD609761965E
:1050A0003FAD619765964FAD659766965FAD669724
:1050B000612F722D832D902FBB2309F455C00E94C0
:1050C000A5E718160CF06CC02B964CAD5DAD6EAD1F
:1050D0007FAD2B974419550966097709DB01CA0191
:1050E00088589341A109B109B7FD5AC02F968CADDC
:1050F0009DADAEADBFAD2F9788199909AA09BB091F
:10510000B595A795979587958093580EE4964CAFE3
:105110005DAF6EAF7FAFE4976096EFAD60976D9631
:10512000EFAF6D976196FFAD61976E96FFAF6E978B
:1051300065962FAD65976F962FAF6F9766963FADCB
:105140006697A0963FAFA0972B968CAD9DADAEAD68
:10515000BFAD2B97E0968CAF9DAFAEAFBFAFE097E2
:10516000AB961FAEAB971CC00E94BFE187FF18C073
:105170002B968CAD9DADAEADBFAD2B97E0962CAD13
:105180003DAD4EAD5FADE097821B930BA40BB50B0D
:10519000AC01BD01485853416109710977FFF6C65A
:1051A00020E030E040EA51E460966FAD6097619690
:1051B0007FAD619765968FAD659766969FAD669753
:1051C0000E9422E69B01AC01612F722D832D902F4E
:1051D0000E94A5E718167CF4E2EDF6E084918F01B9
:1051E0000F5F1F4F811103C00E9418A205C30E94C8
:1051F000D736F801F3CF2B968CAD9DADAEADBFADDC
:105200002B97E9962CAD3DAD4EAD5FADE997821B76
:10521000930BA40BB50BB7FDABC00E9441A18AE074
:105220000E94D7362B968CAD9DADAEADBFAD2B9702
:105230008053984FAF4FBF4FE9968CAF9DAFAEAF45
:10524000BFAFE997AC969FADAC9791116EC0ED964C
:105250002CAD3DAD4EAD5FADED97612F722D832D21
:10526000902F0E94A5E718160CF046C020E030E011
:1052700040E051E460966FAD609761967FAD6197B5
:1052800065968FAD659766969FAD66970E9421E6FD
:105290009B01AC01A1E0AC96AFAFAC97612F722D32
:1052A000832D902F0E94A5E718161CF0AC961FAE18
:1052B000AC9720E030E040E050E4612F722D832D68
:1052C000902F0E9422E6ED966CAF7DAF8EAF9FAF20
:1052D000ED972B962CAD3DAD4EAD5FAD2B97205489
:1052E0003B424E4F5F4FC358DF4F288339834A8379
:1052F0005B83CD57D0403CC02B968CAD9DADAEAD01
:10530000BFAD2B97C358DF4F288139814A815B811C
:10531000CD57D040821B930BA40BB50BB7FD28C013
:1053200044EB56E063EC76E020C020E030E040EA59
:1053300051E460966FAD609761967FAD6197659619
:105340008FAD659766969FAD66970E9421E69B019B
:10535000AC01612F722D832D902F0E94BFE187FF3A
:1053600007C044E956E064EA76E080E00E94FAA2D1
:105370002B968CAD9DADAEADBFAD2B97880F991F11
:10538000AA1FBB1FE0962CAD3DAD4EAD5FADE097C3
:10539000821B930BA40BB50B84199509A609B709B9
:1053A00081389F44A241B10568F0E6E7F6E08491B8
:1053B0008F010F5F1F4F882309F416CF0E94D73645
:1053C000F801F5CF68964EAD5FAD6897AA968EADA1
:1053D0009FADAA97841795070CF066C0E9E1F6E047
:1053E00084918F010F5F1F4F882321F00E94D736D1
:1053F000F801F6CFB701A60184E096E00E94A970FB
:105400008AE00E94D736A4964CAD5DAD6EAD7FADFF
:10541000A4978FEE95E00E94A9708AE00E94D7368B
:10542000A8964CAD5DAD6EAD7FADA8978AED95E0C9
:105430000E94A9708AE00E94D736E5969FADE59755
:10544000992309F4D9C1C0922F0AD092300AE09270
:10545000310AF092320A2CEA35EC47E25EE3A49678
:105460006CAD7DAD8EAD9FADA4970E9425E260939B
:10547000370A7093380A8093390A90933A0A2CEAD3
:1054800035EC47E25EE3A8966CAD7DAD8EAD9FAD89
:10549000A8970E94A5E66093330A7093340A80931C
:1054A000350A9093360AA8C10E94A6AB96CD0E94F9
:1054B000287AA2C10E94E7739FC183E50E94C53488
:1054C000882321F00E94823491E089270E9479B3D9
:1054D00093C180E090E0A0E5B1EC89839A83AB832F
:1054E000BC8380E090E0A0E2B1E48D839E83AF8333
:1054F000B88780E090E0A0EAB1E489879A87AB871B
:10550000BC870E945F54882319F081E00E949A3C76
:1055100085E40E94C534882319F00E94923404C0A7
:1055200060E070E080E890EC27966CAF7DAF8EAFC6
:105530009FAF27978AE50E94F434882379F08AE5A3
:105540000E94F434882319F00E94923403C060E072
:1055500070E0CB0169877A878B879C8788E50E94FA
:10556000F434882379F088E50E94F434882319F014
:105570000E94923403C060E070E0CB0169837A83BB
:105580008B839C8389E50E94F434882379F089E534
:105590000E94F434882319F00E94923403C060E022
:1055A00070E0CB016D837E838F83988785E50E94B1
:1055B000C534882319F00E94923404C060E070E082
:1055C00086E993EC23966CAF7DAF8EAF9FAF2397A8
:1055D0008CE40E94C534882319F00E94923404C0E0
:1055E00060E070E087E893E46BAF7CAF8DAF9EAF77
:1055F00082E40E94F43481110E945E3400910B0B0E
:1056000010910C0B80912903811165C021E0AE013E
:10561000415C5F4FBE016F5F7F4FCE018D5B9F4F3F
:105620000E941B4C882309F456C081E08093AA0E87
:10563000FF24F3948091AA0E8823D1F18091A00ACF
:10564000882391F188E090E00E94DC948091AA0E7A
:10565000882321F081E00E94044AF8CF1092510E75
:105660001092520E1092530E1092540E1092A00AE5
:105670000E94CDA10E94E73182E090E00E94DC947C
:105680000E942159DC01CB0180549B42AE4FBF4F99
:105690008093510E9093520EA093530EB093540EDC
:1056A0001092A00AF092AA0E81E00E94044AC2CF92
:1056B00080E090E0A8E4B2E488A399A3AAA3BBA3E6
:1056C00080912903882339F0BE01605E7F4FCE01AF
:1056D000CB960E94ED4C0130110509F08DC00E945F
:1056E000FD548AC0E3EBFDE084918F010F5F1F4FF3
:1056F000882321F00E94D736F801F6CFE6E4F7E0E0
:1057000084918F010F5F1F4F882309F475C00E9499
:10571000D736F801F5CF81E0809368011092A20A94
:1057200083E50E94F434882319F00E94823403C078
:1057300083E50E94C53481115FC00E9480CD5CC0AA
:10574000F090620FFF2029F1E9E7F2E284918F01E6
:105750000F5F1F4F882321F00E94D736F801F6CF44
:1057600084E50E94D7366F2D70E080E090E04AE03B
:105770000E946A3A80E20E94D73608E312E0D8011C
:105780008D918D01882311F40C94CF200E94D7367F
:10579000F6CF1092F802E9E7F2E284918F010F5FF1
:1057A0001F4F882321F00E94D736F801F6CF609171
:1057B000F80270E085E597E00E94C6708AE00E94DA
:1057C000D7361AC0E9E7F2E284918F010F5F1F4FCD
:1057D000882321F00E94D736F801F6CF60910F039D
:1057E0007091100387E697E00E94DF7082E20E94CA
:1057F000D7368AE00E94D7360E9461CD8CC50E94C0
:105800005E34AB01BC014093B20D5093B30D609375
:10581000B40D7093B50D81E09DE00E941861ECCF4E
:1058200061E08C2D0E9412696D2D8C2D0E94E26822
:105830000D2D10E061E08C2D0E94126901151105FB
:1058400009F45AC00F3F110509F458C0F701FF27AA
:10585000EC57F14FE4914E2F50E0FA013197E930C7
:10586000F10508F046C0EA5BFF4F0C9471E884B57F
:10587000806884BDD7BC46C084B5806284BDD8BC76
:1058800041C08091800080688093800010938900DF
:105890000093880037C080918000806280938000F0
:1058A00010938B0000938A002DC08091B000806817
:1058B0008093B000D092B30025C08091B000806288
:1058C0008093B000D092B4001DC080919000806899
:1058D00080939000109399000093980013C08091DA
:1058E000900080628093900010939B0000939A0038
:1058F00009C00038110514F460E001C061E08C2D8E
:105900000E94E268FCE1EF16F10409F075CF1093F4
:10591000350F0093340F70CF0E9492340E9417E726
:105920007093330F6093320F80E00E94CDA160919D
:10593000320F7091330F072E000C880B990B0E94C9
:10594000C6E12091F9023091FA024091FB02509198
:10595000FC020E94A5E71816B4F481EF91E09F9332
:105960008F938091590E90E001969F938F9388E1D9
:1059700093E09F938F931F920E94899B0FB6F89498
:10598000DEBF0FBECDBF81E080936F012F961CAEAE
:105990001DAE1EAE1FAE2F9764961CAE1DAE1EAE82
:1059A0001FAE649728961FAE289765961FAE659721
:1059B0009CE366969FAF6697ACE16796AFAF67973B
:1059C000B6E46996BFAF6997E12CF12C00E81FEBB4
:1059D000812C912C54016091320F7091330F072E5E
:1059E000000C880B990B0E94C6E1762E672E582E6C
:1059F000492E262F372F482F592FB701C8010E9453
:105A0000BFE1882331F12091F9023091FA024091EF
:105A1000FB025091FC02672D762D852D942D0E945E
:105A2000BFE1881F8827881F28968FAF2897609628
:105A3000EFAD6097EE2389F0882379F080916F01B4
:105A4000882309F4D9CE60E086E093E00E9472AB2F
:105A5000D3CE7E2C6F2C502E412E0E9421596B01EB
:105A60007C01DC01CB0164962CAD3DAD4EAD5FAD4C
:105A70006497821B930BA40BB50BB7FD3CC0D701F9
:105A8000C60188519C4FAF4FBF4F64968CAF9DAFFE
:105A9000AEAFBFAF64970E9441A1E4E1F3E084910F
:105AA0008F010F5F1F4F882321F00E94D736F80126
:105AB000F6CF81149104A104B104B9F0D501C40159
:105AC000805F984DAF4FBF4FBC01CD016C197D0970
:105AD0008E099F0928EE33E040E050E00E94E5E5A2
